:100000000C9463000C948B000C948B000C948B006C
:100010000C948B000C948B000C948B000C948B0034
:100020000C948B000C948B000C948B000C948B0024
:100030000C948B000C948B000C948B000C948B0014
:100040000C948D030C948B000C945B030C9435037F
:100050000C948B000C948B000C948B000C948B00F4
:100060000C948B000C948B000000000024002700EF
:100070002A0000000000250028002B0000000000DE
:1000800023002600290004040404040404040202DA
:100090000202020203030303030301020408102007
:1000A0004080010204081020010204081020000012
:1000B0000008000201000003040700000000000027
:1000C0000000D7035A0611241FBECFEFD8E0DEBFD1
:1000D000CDBF12E0A0E0B1E0E0E8F5E102C005909C
:1000E0000D92A835B107D9F723E0A8E5B2E001C029
:1000F0001D92AC30B207E1F710E0C2E6D0E004C0D8
:100100002197FE010E94BB08C136D107C9F70E94A2
:100110004B040C94B30A0C940000AF92BF92CF92A0
:10012000DF92EF92FF920F931F93CF93DF936C01B7
:100130007B018B01040F151FEB015E01AE18BF0898
:10014000C017D10759F06991D601ED91FC9101904A
:10015000F081E02DC6010995892B79F7C501DF9162
:10016000CF911F910F91FF90EF90DF90CF90BF90B4
:10017000AF900895FC01538D448D252F30E0842FDE
:1001800090E0821B930B541710F0CF9608950197BF
:100190000895FC01918D828D981761F0A28DAE0FAC
:1001A000BF2FB11D5D968C91928D9F5F9F73928F33
:1001B00090E008958FEF9FEF0895FC01918D828D5F
:1001C000981731F0828DE80FF11D858D90E008952C
:1001D0008FEF9FEF0895FC01918D228D892F90E084
:1001E000805C9F4F821B91098F739927089585E644
:1001F00092E00E94EB0021E0892B09F420E0822F9D
:10020000089580E090E0892B29F00E94F700811189
:100210000C9400000895FC01A48DA80FB92FB11D06
:10022000A35ABF4F2C91848D90E001968F7399272C
:10023000848FA689B7892C93A089B1898C9183700A
:1002400080648C93938D848D981306C00288F38903
:10025000E02D80818F7D80830895EF92FF920F9330
:100260001F93CF93DF93EC0181E0888F9B8D8C8D62
:1002700098131AC0E889F989808185FF15C09FB756
:10028000F894EE89FF896083E889F9898081837019
:10029000806480839FBF81E090E0DF91CF911F91C8
:1002A0000F91FF90EF900895F62E0B8D10E00F5FE9
:1002B0001F4F0F731127E02E8C8D8E110CC00FB6BF
:1002C00007FCFACFE889F989808185FFF5CFCE0157
:1002D0000E940B01F1CFEB8DEC0FFD2FF11DE35AC6
:1002E000FF4FF0829FB7F8940B8FEA89FB898081DA
:1002F0008062CFCFCF93DF93EC01888D8823B9F054
:10030000AA89BB89E889F9898C9185FD03C0808120
:1003100086FD0DC00FB607FCF7CF8C9185FFF2CF9D
:10032000808185FFEDCFCE010E940B01E9CFDF91E7
:10033000CF910895833081F028F4813099F0823094
:10034000A9F008958730A9F08830C9F08430B1F45D
:10035000809180008F7D03C0809180008F77809393
:100360008000089584B58F7784BD089584B58F7D0E
:10037000FBCF8091B0008F778093B000089580917B
:10038000B0008F7DF9CFCF93DF93282F30E0F901B4
:10039000E255FF4F8491F901E656FF4FD491F901E0
:1003A000EA57FF4FC491CC23A1F081110E949A011A
:1003B000EC2FF0E0EE0FFF1FE458FF4FA591B49132
:1003C000EC91ED2381E090E009F480E0DF91CF91A2
:1003D000089580E090E0FACF1F93CF93DF93282F0A
:1003E00030E0F901E255FF4F8491F901E656FF4FE5
:1003F000D491F901EA57FF4FC491CC23A9F0162FED
:1004000081110E949A01EC2FF0E0EE0FFF1FEE58D1
:10041000FF4FA591B4918FB7F894EC91111108C0DA
:10042000D095DE23DC938FBFDF91CF911F9108958C
:10043000DE2BF8CFCF93DF9390E0FC01E656FF4F21
:1004400024918A579F4FFC0184918823D1F090E03A
:10045000880F991FFC01E859FF4FA591B491FC0149
:10046000EE58FF4FC591D49161110EC09FB7F8941B
:100470008C91E22FE0958E238C932881E223E883F0
:100480009FBFDF91CF9108958FB7F894EC91E22B45
:10049000EC938FBFF6CF3FB7F89480915D029091B7
:1004A0005E02A0915F02B091600226B5A89B05C0D4
:1004B0002F3F19F00196A11DB11D3FBFBA2FA92FE3
:1004C000982F8827BC01CD01620F711D811D911DE0
:1004D00042E0660F771F881F991F4A95D1F708954C
:1004E000FC0101900020E9F73197AF01481B590B3F
:1004F000BC0185E692E00C948D008F929F92AF92A2
:10050000BF920F931F93CF93DF93CDB7DEB7A19721
:100510000FB6F894DEBF0FBECDBF19A2423008F46B
:100520004AE08E010F5D1F4F842E912CB12CA12C1F
:10053000A50194010E94DD07E62FB901CA01EA3046
:10054000F4F4E05DD801EE938D01232B242B252BB1
:1005500079F790E080E0109719F0CD010E947002C9
:10056000A1960FB6F894DEBF0FBECDBFDF91CF913D
:100570001F910F91BF90AF909F908F900895E95C6D
:10058000E1CFCF93DF930E947002EC0188E191E00C
:100590000E9470028C0F9D1FDF91CF910895CF9321
:1005A000DF93EC018091020390910303009759F0CF
:1005B00020910403309105032C173D0720F081E0C2
:1005C000DF91CF910895BE016F5F7F4F0E94E609D2
:1005D000009789F09093030380930203D09305035F
:1005E000C09304032091060330910703232B39F7AE
:1005F000FC011082E4CF80E0E3CF0F931F93CF93F1
:10060000DF938C01EC0109900020E9F72197C81BCA
:10061000D90BCE010E94CF02209102033091030337
:10062000811117C02115310519F0C9010E945D091A
:100630001092030310920203109207031092060314
:100640001092050310920403DF91CF911F910F9137
:100650000895D0930703C0930603B801C901DF9141
:10066000CF911F910F910C94AC0A1F920F920FB66D
:100670000F9211242F933F934F935F936F937F9328
:100680008F939F93AF93BF93EF93FF9385E692E091
:100690000E940B01FF91EF91BF91AF919F918F91BC
:1006A0007F916F915F914F913F912F910F900FBE6E
:1006B0000F901F9018951F920F920FB60F92112452
:1006C0002F938F939F93EF93FF93E0917502F09197
:1006D00076028081E0917B02F0917C0282FD1BC05A
:1006E000908180917E028F5F8F7320917F028217AD
:1006F00041F0E0917E02F0E0EB59FD4F958F809341
:100700007E02FF91EF919F918F912F910F900FBEDD
:100710000F901F9018958081F4CF1F920F920FB603
:100720000F9211242F933F938F939F93AF93BF9377
:100730008091590290915A02A0915B02B0915C02A3
:100740003091580223E0230F2D3758F50196A11D53
:10075000B11D209358028093590290935A02A0939E
:100760005B02B0935C0280915D0290915E02A09169
:100770005F02B09160020196A11DB11D80935D02E0
:1007800090935E02A0935F02B0936002BF91AF911D
:100790009F918F913F912F910F900FBE0F901F90BF
:1007A000189526E8230F0296A11DB11DD2CF1092F5
:1007B00068021092670288EE93E0A0E0B0E08093B8
:1007C000690290936A02A0936B02B0936C028AE074
:1007D00091E0909366028093650285EC90E090939F
:1007E00072028093710284EC90E090937402809383
:1007F000730280EC90E0909376028093750281EC16
:1008000090E0909378028093770282EC90E090934E
:100810007A028093790286EC90E090937C02809338
:100820007B0210927E0210927F0210928002109240
:10083000810210920303109202031092050310929A
:100840000403109207031092060390E080E00E94D8
:10085000CF022091020330910303811113C02115AF
:10086000310519F0C9010E945D091092030310922D
:1008700002031092070310920603109205031092D0
:100880000403089510920703109206036AE171E0D1
:10089000C9010C94AC0A789484B5826084BD84B597
:1008A000816084BD85B5826085BD85B5816085BD6B
:1008B00080916E00816080936E0010928100809123
:1008C00081008260809381008091810081608093AB
:1008D0008100809180008160809380008091B100D0
:1008E00084608093B1008091B00081608093B000FB
:1008F00080917A00846080937A0080917A0082608F
:1009000080937A0080917A00816080937A00809150
:100910007A00806880937A001092C100E09175029D
:10092000F091760282E08083E0917102F091720290
:100930001082E0917302F09174028FEC8083109228
:100940007D02E0917902F0917A0286E08083E09165
:100950007702F0917802808180618083E091770254
:10096000F0917802808188608083E0917702F09135
:100970007802808180688083E0917702F09178022C
:1009800080818F7D808360E082E00E941A0260E0B7
:1009900083E00E941A0260E084E00E941A0260E094
:1009A00085E00E941A0260E086E00E941A0261E07F
:1009B00087E00E941A0260E088E00E941A0210E4B8
:1009C00088248A9493E0992EA12CB12CC0E0D0E029
:1009D00010937C0080917A00806480937A008091EB
:1009E0007A0086FDFCCF80917800A0917900BA2F23
:1009F000A82F24E630E00E94B408A50194010E94CB
:100A00008707CA01B9010E946A0660936102709368
:100A10006202809363029093640282E00E94C301A9
:100A2000019709F093C08BE191E00E94C10283E03D
:100A30000E94C301019709F08CC087E491E00E94F5
:100A4000C10284E00E94C301019709F085C085E7D7
:100A500091E00E94C10285E00E94C301019709F064
:100A60007EC081EA91E00E94C10286E00E94C3013B
:100A7000019709F077C061E087E00E94EC018FECFC
:100A800091E00E94C1028FEE91E00E947002C0903E
:100A90006102D0906202E0906302F0906402A701CC
:100AA0009601C701B6010E94AF08882309F461C00E
:100AB00081E092E00E94700288E191E00E94700261
:100AC00088E00E94C301019709F0E5C08DE092E043
:100AD0000E94FD0261E089E00E94EC0160E08AE092
:100AE0000E94EC018FE092E00E94C1020E944B0242
:100AF0006B017C0180ED482E87E0582E612C712C13
:100B00000E944B026C197D098E099F09683E734053
:100B100081059105A8F321E0421A51086108710886
:100B200088EEC80E83E0D81EE11CF11C411451046C
:100B30006104710429F7209709F44ACF0E94F70055
:100B4000882309F445CF0E94000042CF82E391E060
:100B50006CCF8FE591E073CF8CE891E07ACF89EB91
:100B600091E081CF60E087E00E94EC0180EE91E0AF
:100B700088CF26013701E89477F82FEF3FEF4FE752
:100B80005FE7C301B2010E94AF0881110DC02FEFD2
:100B90003FEF4FE75FE7C301B2010E9463061816FB
:100BA0001CF485E092E086CF2FEF3FEF4FE75FE444
:100BB000C701B6010E94AA0818161CF489E092E049
:100BC00079CF2FEF3FEF4FE75FECC701B6010E94EF
:100BD000630687FDF3CF20E030E0A901C701B6012D
:100BE0000E94630687FF09C06DE285E692E00E94DD
:100BF0002D01F7FAF094F7F8F0942AE037ED43EA84
:100C00005BE3C701B6010E940F082B013C010E9463
:100C10007B086B017C010E9468069B01AC01C3014B
:100C2000B2010E940E082B013C014AE0C701B60147
:100C30000E947D026EE285E692E00E942D0120E096
:100C400030E040E251E4C301B2010E94C9062B0129
:100C50003C010E947B086B01F12CE12C4AE0C701AA
:100C6000B6010E947D02C701B6010E9468069B0181
:100C7000AC01C301B2010E940E0820E030E040E266
:100C800051E40E94C9060E947B0890E080E04AE09F
:100C90000E947D0211CF86E392E00E94FD0261E096
:100CA0008AE00E94EC0160E089E00E94EC0188E3A8
:100CB00092E01ACF8091020390910303009711F004
:100CC0000C945D0908950E94A50608F481E008953A
:100CD000E89409C097FB3EF49095809570956195D6
:100CE0007F4F8F4F9F4F9923A9F0F92F96E9BB278C
:100CF0009395F695879577956795B795F111F8CF08
:100D0000FAF4BB0F11F460FF1BC06F5F7F4F8F4F72
:100D10009F4F16C0882311F096E911C0772321F068
:100D20009EE8872F762F05C0662371F096E8862F00
:100D300070E060E02AF09A95660F771F881FDAF757
:100D4000880F9695879597F90895990F0008550F84
:100D5000AA0BE0E8FEEF16161706E807F907C0F041
:100D600012161306E407F50798F0621B730B840B49
:100D7000950B39F40A2661F0232B242B252B21F423
:100D800008950A2609F4A140A6958FEF811D811DC3
:100D900008950E94DC060C944D070E943F0738F02E
:100DA0000E94460720F0952311F00C9436070C940E
:100DB0003C0711240C9481070E945E0770F3959FF5
:100DC000C1F3950F50E0551F629FF001729FBB2742
:100DD000F00DB11D639FAA27F00DB11DAA1F649FDE
:100DE0006627B00DA11D661F829F2227B00DA11D91
:100DF000621F739FB00DA11D621F839FA00D611D17
:100E0000221F749F3327A00D611D231F849F600D37
:100E1000211D822F762F6A2F11249F5750409AF060
:100E2000F1F088234AF0EE0FFF1FBB1F661F771FEC
:100E3000881F91505040A9F79E3F510580F00C94B7
:100E400036070C9481075F3FE4F3983ED4F3869510
:100E500077956795B795F795E7959F5FC1F7FE2B57
:100E6000880F911D9695879597F9089597F99F6733
:100E700080E870E060E008959FEF80EC0895002422
:100E80000A941616170618060906089500240A94EF
:100E900012161306140605060895092E0394000C75
:100EA00011F4882352F0BB0F40F4BF2B11F460FF04
:100EB00004C06F5F7F4F8F4F9F4F089557FD90582D
:100EC000440F551F59F05F3F71F04795880F97FB0E
:100ED000991F61F09F3F79F08795089512161306C8
:100EE0001406551FF2CF4695F1DF08C016161706F7
:100EF0001806991FF1CF869571056105089408952C
:100F0000E894BB2766277727CB0197F90895052E2C
:100F100097FB1EF400940E949E0757FD07D00E9485
:100F2000DD0707FC03D04EF40C949E0750954095C6
:100F3000309521953F4F4F4F5F4F08959095809585
:100F4000709561957F4F8F4F9F4F08952F923F92DD
:100F50004F925F926F927F928F929F92AF92BF92C9
:100F6000CF92DF92EF92FF920F931F93CF93DF9375
:100F7000CDB7DEB7CA1BDB0B0FB6F894DEBF0FBED2
:100F8000CDBF09942A88398848885F846E847D841F
:100F90008C849B84AA84B984C884DF80EE80FD8021
:100FA0000C811B81AA81B981CE0FD11D0FB6F89497
:100FB000DEBF0FBECDBFED010895A1E21A2EAA1B20
:100FC000BB1BFD010DC0AA1FBB1FEE1FFF1FA217F9
:100FD000B307E407F50720F0A21BB30BE40BF50BF6
:100FE000661F771F881F991F1A9469F7609570957F
:100FF000809590959B01AC01BD01CF010895A29F02
:10100000B001B39FC001A39F700D811D1124911DDC
:10101000B29F700D811D1124911D08955058BB275A
:10102000AA270E9426080C944D070E943F0738F01B
:101030000E94460720F039F49F3F19F426F40C94DF
:101040003C070EF4E095E7FB0C943607E92F0E946D
:101050005E0758F3BA17620773078407950720F0F5
:1010600079F4A6F50C9480070EF4E0950B2EBA2FB8
:10107000A02D0B01B90190010C01CA01A00111249E
:10108000FF27591B99F0593F50F4503E68F11A164A
:10109000F040A22F232F342F4427585FF3CF4695DB
:1010A00037952795A795F0405395C9F77EF41F16FD
:1010B000BA0B620B730B840BBAF09150A1F0FF0FC7
:1010C000BB1F661F771F881FC2F70EC0BA0F621FB3
:1010D000731F841F48F4879577956795B795F795A3
:1010E0009E3F08F0B0CF9395880F08F09927EE0F38
:1010F0009795879508950E94660788F09F5798F006
:10110000B92F9927B751B0F0E1F0660F771F881F0C
:10111000991F1AF0BA95C9F714C0B13091F00E9426
:101120008007B1E008950C948007672F782F8827F7
:10113000B85F39F0B93FCCF3869577956795B3954D
:10114000D9F73EF490958095709561957F4F8F4FBC
:101150009F4F08950E94A50608F48FEF08950E94FE
:10116000A506880B990B08950E94FF07B7FF089505
:10117000821B930B0895EE0FFF1F0590F491E02D55
:1011800009940F931F93CF93DF938230910510F44E
:1011900082E090E0E0910A03F0910B0330E020E060
:1011A000B0E0A0E0309799F42115310509F44AC068
:1011B000281B390B24303105D8F58A819B816115B4
:1011C000710589F1FB0193838283FE0111C0408187
:1011D00051810281138148175907E0F048175907D8
:1011E00099F4109761F012960C93129713961C9332
:1011F0003296CF01DF91CF911F910F910895009307
:101200000A0310930B03F4CF2115310551F0421757
:10121000530738F0A901DB019A01BD01DF01F80194
:10122000C1CFEF01F9CF90930B0380930A03CDCF89
:10123000FE01E20FF31F819391932250310939830C
:101240002883D7CF2091080330910903232B41F441
:101250002091020130910301309309032093080388
:1012600020910001309101012115310541F42DB784
:101270003EB74091040150910501241B350BE091CC
:101280000803F0910903E217F307A0F42E1B3F0BAC
:101290002817390778F0AC014E5F5F4F24173507E8
:1012A00048F04E0F5F1F509309034093080381934A
:1012B00091939FCFF0E0E0E09CCFCF93DF93009736
:1012C000E9F0FC01329713821282A0910A03B091D7
:1012D0000B03ED0130E020E01097A1F42081318173
:1012E000820F931F209108033091090328173907B3
:1012F00009F061C0F0930903E0930803DF91CF91F7
:101300000895EA01CE17DF07E8F54A815B819E0167
:1013100041155105B1F7E901FB83EA8349915991E0
:10132000C40FD51FEC17FD0761F4808191810296EF
:10133000840F951FE90199838883828193819B8320
:101340008A83F0E0E0E012968D919C9113970097CC
:10135000B9F52D913C911197CD010296820F931F03
:1013600020910803309109032817390739F630977F
:1013700051F510920B0310920A03B0930903A09346
:101380000803BCCFD383C28340815181840F951F52
:10139000C817D90761F44E5F5F4F88819981480F64
:1013A000591F518340838A819B81938382832115B6
:1013B000310509F0B0CFF0930B03E0930A039ECF01
:1013C000FD01DC01C0CF13821282D7CFB0E0A0E0D4
:1013D000ECEEF9E00C94A8078C01009751F4CB01D6
:1013E0000E94C1088C01C801CDB7DEB7E0E10C94C2
:1013F000C407FC01E60FF71F9C0122503109E217D8
:10140000F30708F49DC0D901CD91DC911197C6175F
:10141000D70798F0C530D10530F3CE010497861771
:10142000970708F3C61BD70B2297C193D1936D93EF
:101430007C93CF010E945D09D6CF5B01AC1ABD0A37
:101440004C018C0E9D1EA0910A03B0910B03512CF0
:10145000412CF12CE12C109731F5809108039091EB
:1014600009038815990509F05CC04616570608F06F
:1014700058C08091000190910101009741F48DB70F
:101480009EB74091040150910501841B950BE8170C
:10149000F90708F055C0F0930903E0930803F90138
:1014A00071836083A0CF8D919C91119712966C905F
:1014B000129713967C901397A815B90559F56C01EE
:1014C00042E0C40ED11CCA14DB0420F1AC014A195D
:1014D0005B09DA011296159780F06282738251835C
:1014E0004083D9016D937C93E114F10471F0D7012D
:1014F0001396FC93EE93129776CF22968C0F9D1F36
:10150000F90191838083F301EFCFF0930B03E09314
:101510000A0369CF4816590608F42C017D01D3014E
:101520009ACFCB010E94C1087C01009749F0AE011F
:10153000B8010E94A30AC8010E945D09870153CF28
:1015400010E000E050CFFB01DC0102C001900D92E1
:1015500041505040D8F70895FB01DC0101900D92F5
:101560000020E1F7089510E0C2E6D0E004C0FE01DB
:101570000E94BB082196C336D107C9F7F894FFCF64
:1015800000000C038000000000002D018D00BA0057
:101590007A01EB00C900DD000D0A0054562050729C
:1015A000696E636970616C20456E63656E64696421
:1015B00061005456205072696E636970616C2041FD
:1015C00070616761646100545620446F726D697484
:1015D0006F72696F20456E63656E64696461005463
:1015E0005620446F726D69746F72696F204170612B
:1015F00067616461004143205072696E6369706184
:101600006C20456E63656E6469646F0041432050D1
:1016100072696E636970616C204170616761646FAB
:1016200000414320446F726D69746F72696F204589
:101630006E63656E6469646F00414320446F726D30
:1016400069746F72696F204170616761646F0041F6
:101650006C61726D6120456E63656E6469646100E2
:10166000416C61726D61204170616761646100432A
:10167000616E7469646164206465204167756120EE
:10168000006E616E00696E66006F76660031004123
:101690006C6572746120496E63656E64696F204C7D
:1016A0006C616D6120616C20393131205572676544
:1016B0006E74652121003000416C657274612049AF
:1016C0006E63656E64696F20546F646F2072656C21
:0816D000616A61646F212100D1
:00000001FF
